:020000040000FA
:2010000000000420B1510000D9510000DB510000DD510000DF510000E151000000000000C4
:20102000000000000000000000000000E3510000E551000000000000E7510000E9510000D4
:201040009D6800009D5E0000C1A50000EB510000EB510000EB51000039650000EB5100009C
:2010600079930000EB510000EB510000AD690000EB510000AD680000EB510000EB5100000D
:20108000B9890000EB510000EB510000EB510000EB510000EB510000EB510000EB5100006A
:2010A000EB510000EB510000EB510000EB510000EB510000EB5100000000000000000000C8
:2010C000EB510000EB510000EB510000EB510000EB510000EB510000EB5100009D8100004E
:2010E000EB510000EB510000EB5100000000000000000000EB51000000000000EB510000C4
:201100000000000000000000000000000000000000000000000000000000000000000000CF
:201120000000000000000000000000000000000000000000000000000000000000000000AF
:2011400000000000000000000000000000000000000000000000000000000000000000008F
:2011600000000000000000000000000000000000000000000000000000000000000000006F
:2011800000000000000000000000000000000000000000000000000000000000000000004F
:2011A00000000000000000000000000000000000000000000000000000000000000000002F
:2011C00000000000000000000000000000000000000000000000000000000000000000000F
:2011E0000000000000000000000000000000000000000000000000000000000000000000EF
:2012000001F0FF01102A2BDB10F0070F08D010F8013B013A8B422DD010F0070F42B3F6D194
:20122000F0B441EA012141EA014122F007047FF000070023F0E80256083C85EA010586EA41
:20124000010685FA47F5A3FA87F586FA47F6A5FA87F68EB9EED1F0BC01F0FF0102F007023C
:2012600032B110F8013B013A83EA010313B1F8D10020704701387047002D06BF354603389F
:20128000073815F0010F07D1013015F4807F02BF013015F4C03F0130F0BC0138704700BF63
:2012A00010B5054C237833B9044B13B10448AFF300800123237010BDC801002000000000A3
:2012C00010C5000008B5034B1BB103490348AFF3008008BD00000000CC01002010C5000022
:2012E000A3F5803A704700BF174B002B08BF134B9D46FFF7F5FF00218B460F461348144AA7
:20130000121A0AF0ADFB0E4B002B00D098470D4B002B00D098470020002104000D000D48F3
:20132000002802D00C48AFF3008009F0D5FA2000290002F017FF09F0BBFA00BF00000800AF
:20134000000000000000000000000420C801002048140020000000000000000000B585B01A
:201360000346002101AA44F20100CDE90111039300F004F805B05DF804FB00BF72B6094B93
:201380001B68DB0700D500BEBFF34F8F0649074BCA6802F4E0621343CB60BFF34F8F00BFEA
:2013A000FDE700BFF0ED00E000ED00E00400FA050378052B02D0094B1B681847084BD3F82C
:2013C0008424D3F8803413F0FF0FF4D1054BD2B2052A08BF1846014B1B681847E4010020B5
:2013E000007002407CBD0000014B02481B681847E401002080BD0000012803D0022809D049
:2014000020B17047054B06481B681847034B05481B681847014B04481B681847E4010020C8
:2014200074BD000070BD000078BD00002DE9F04F87B0002504460F4690469946029500E09D
:2014400001356268012356682146002202A8B0470028F5D18DF80600049065B382468346CA
:201460000AE09DF806306668023B7668B0479DF806309B445D451ED9626801235668214681
:201480000DF1060204A8B04762680123566821460DF1070204A8B0479DF80730BB424FF0DE
:2014A0000002214604A8DCD1D04508D00AF1010A5FFA8AFAD5E7052007B0BDE8F08F109A34
:2014C0009DF80630136089F8003089F801706168023B4D6809F102022146A847002007B045
:2014E000BDE8F08FF0B5054683B03B4806F082F9044610B1204603B0F0BD384A3849394B59
:2015000014700C604822214637481C600AF0A8FA3648214648220AF0A3FA002D54D095E8BF
:201520000700334B83E80700002847D0002004F0AFFD08B1852844D12E4D2B7A002B49D0D6
:20154000013BDBB205F10C024FF0030E6E68274FDFF894C01EFB032E05F109046378EBB133
:20156000A278611C1144013B51FA83F1224408E003F00F0307EBC30391421D6030685860D9
:201580000CD012F8013B1806F2D503F00F030CEBC30391421D6030685860F2D1033474452F
:2015A000DCD10B238DF804301248336801A99847044600289ED006F05FF99BE70E4A1A6097
:2015C000B4E7FFF7CBFEB7E7094B0B4A5D601D721A60ABE76E68E4E7B1130000EB12002090
:2015E0008002002084020020F001002038020020E4010020ACBD0000C119000010B506F035
:2016000055FA68B106F05AFA044648B9064804F053FD034628B1FFF7A1FE2346184610BDF0
:201620000823184610BD00BF6CBD000006F02EB907F02CB84FF0804303E0D3F83824D107D0
:2016400007D5D3F838249207F7D5024B02481B6818477047E401002084BD000000B5054BA7
:2016600083B082221B688DF8042001A8984703B05DF804FBE40100202DE9F043057A83B0D8
:20168000002D5ED005F1FF3E5FFA8EF300F10C024FF0030E00F10901334FDFF8D4C01EFB92
:2016A000032E0C4666780022964204EB020319D094F8028013F9089013F80830B9F1000F44
:2016C0000BDB03F00F0307EBC3031B680132002BEAD0112003B0BDE8F08303F00F030CEBD4
:2016E000C303F2E70334A645DCD100261E4FDFF880C0324602EB42020A445378EBB1002450
:2017000023460CE003F00F0307EBC303186045682D685D6055780134E3B29D420CD99578D8
:20172000134413F905E05B5DBEF1000FEADA03F00F030CEBC303E9E7057A0136F2B2954264
:20174000D8D80A4A13681BB11A681368002BFBD1106043680B228DF804201B6801A998474D
:2017600003B0BDE8F08300BF3802002080020020F0010020024B1878003818BF012070470E
:20178000EA120020030710B5044604D52046BDE8104006F013BE06F02BFB204606F066FE3D
:2017A0002046BDE8104006F009BE00BF07F04CB8014B1868704700BF80020020F0B40E4B76
:2017C0001F688FB13E7A96B100231C463A4602E0DCB2A6420BD9557A854203F1010302F181
:2017E0000302F5D101B10C703846F0BC70473B681F68002FE6D1F7E780020020436811467D
:201800001B68184700F00F03082B0AD802064CBF054A064A02EBC303186810B143681B68FB
:2018200018471020704700BFF00100203802002038B5094B1C6864B1054602E023681C6822
:201840003CB1636829461B68204698470628F5D038BD062038BD00BF8002002038B50D46F5
:20186000044606F097F918B1054B1B78022B01D0082038BD29462046BDE8384006F09AB996
:20188000EB12002038B50D46044606F083F918B1054B1B78022B01D0082038BD2946204693
:2018A000BDE8384006F018BAEB120020F8B543689B6805460C4616461BB19847062800D029
:2018C000F8BDEEB92B7AA3421CD9093504EB44042C44677897B133463A469A420BD9A3784D
:2018E000A2190136D05CFFF74DFFF3B2BB4205D262789A42F3D800231B78FFDE0020F8BD26
:201900000720F8BD7378FFDE70B54368DB6805460C4603B198472B7AA3421AD9093504EB36
:2019200044042C4466789EB100252B46324693420BD2A37862190135D05C06F085FFEBB2F3
:201940009E4205D962789342F3D300231B78FFDE70BD00235B78FFDE43681B6903B118477F
:201960001846704770B50A4B1D687DB12E7A4EB100242146013400222846FFF797FFE1B20F
:20198000B142F7D32B681D68002DEFD170BD00BF8002002070B5094B1D6875B12E7A46B134
:2019A0000024214601342846FFF7AEFFE1B2B142F8D32B681D68002DF0D170BD8002002030
:2019C00070B503780446852B00F2BF80DFE813F00002B201BE003A026602E300EA00BD00D1
:2019E000040117012A01BD00BD00BD00BD003D01BD00BD00BD00BD00BD00BD00BD00BD0085
:201A0000BD00BD00BD00BD00BD00BD00BD00BD00BD00BD00BD00BD00BD00BD00BD00BD00F6
:201A2000BD00BD00BD00BD00BD00BD00BD00BD00BD00BD00BD00BD00BD00BD00BD00BD00D6
:201A4000BD00BD00BD00BD00BD00BD00BD00BD00BD00BD00BD00BD00BD00BD00BD00BD00B6
:201A6000BD00BD00BD00BD00BD00BD00BD00BD00BD00BD00BD00BD00BD00BD00BD00BD0096
:201A8000BD00BD00BD00BD00BD00BD00BD00BD00BD00BD00BD00BD00BD00BD00BD00BD0076
:201AA000BD00BD00BD00BD00BD00BD00BD00BD00BD00BD00BD00BD00BD00BD00BD00BD0056
:201AC000BD00BD00BD00BD00BD00BD00BD00BD005101860060011C02E301E3008C4B8D4953
:201AE000D3E9000290478C4B1C684CB1894D636820461B682946984723681C68002CF6D11F
:201B0000864C63680BB10D209847FFF743FF01F075FB834B1B68002B00F0FD810120814DEE
:201B200005F092FF2A78931EDBB2062B00F215827D49CB5C13B104F091FA2A78022A40F057
:201B40000C8205F0FDFF01232B7070BD754D2A78931EDBB2062B00F2CD817349CB5C13B160
:201B600004F07CFA2A78022A40F0C48105F0E8FF6A4B5B6803222A700BB102209847664B37
:201B80001D6845B16B6828461B68214698472B681D68002DF6D15E4B2146D3E90002BDE841
:201BA0007040104790F902308278002BB4BF5F4B574B02F00F0203EBC203D3E900022146A4
:201BC00090470028C1D0A0780207BED00307BCD4BDE8704006F0DEB8504B5B680BB1082009
:201BE00098474D4B1D68002DAFD06B6828461B68214698472B681D68002DF6D1A5E7474B09
:201C00005B680BB109209847434B1D68002D9CD06B6828461B68214698472B681D68002D42
:201C2000F6D192E73D4B5B680BB10A2098473A4B1D68002D89D06B6828461B6821469847BA
:201C40002B681D68002DF6D17FE7344B5B680BB10F209847304B1D68002D3FF476AF6B68AE
:201C600028461B68214698472B681D68002DF6D16BE72C4C2378062B00F04F8103F0FD03D8
:201C8000052B7FF462AF05F065FF0223237070BD244DFFF77FFE06F0EDFC2A78931EDBB2AF
:201CA000062B31D82049CB5C13B104F0D7F92A78022A29D105F044FF174B1C6800232B702E
:201CC0004CB11B4E636820461B683146984723681C68002CF6D10E4B1549D3E90002904746
:201CE0000E4B5B680BB10E2098472B78023BDBB2062B3FF62AAF0C4AD35C002B3FF425AF9C
:201D0000BDE8704004F0AAB9082AD5D1D2E700BF3802002088BD000080020020E401002081
:201D200084020020EB12002064BD0000F00100208CBD00009C4DFFF72DFE01F055FA2A7879
:201D4000931EDBB2062B00F2D9809849CB5C002B00F0D480022A03D0082A01D005F0FAFE63
:201D6000934B5B6802222A700BB101209847914B2146D3E9000290478F4B1D68002D3FF4B1
:201D8000E4AE6B6828461B68214698472B681D68002DF6D170BD844D2B78032B00F0C68096
:201DA00005F096FE00283FF4D0AE2A78931EDBB2062B40F2EB80814804F022F92A78022A6D
:201DC00001D0082A01D105F0BBFE06232B7070BD754B1B78032B00F0A580082B00F0A280B4
:201DE000734B5B680BB100209847754B1D68002D3FF4ABAE6B6828461B68214698472B680C
:201E00005D68002DF6D170BD674D2B78032B7FF49CAE06F06BFC00283FF497AE2A78931E4A
:201E2000DBB2062B00F2BB806049CB5C13B104F015F92A78022A40F0B28005F081FE042356
:201E40002B7070BD584D2A78082A5CD0931EDBB2062B00F286805549CB5C002B00F08180CD
:201E6000022A00F0878005232B70514B5B680BB1032098474F4B2146D3E9000290474E4B30
:201E80001D68002D3FF461AE6B6828461B68214698472B681D68002DF6D170BD444B5B68B9
:201EA0000BB103209847434B4649D3E900029047414B1C684CB1434D636820461B682946F2
:201EC000984723681C68002CF6D1374D2B78062B1ED0082B0BD09A1ED2B2062A4DD83349C0
:201EE0008A5C002A49D0022B01D005F033FE02232B7070BD082A7FF43BAE37E62F4804F092
:201F00007FF82A7826E702232B7005F02DFEACE707232B7070BD207A01E605F01BFE08237C
:201F2000237070BD2848FFF74BFD59E706F0DEFB00283FF435AF2A78931EDBB2062B2BD8D1
:201F40001A49CB5C13B104F089F82A78022A23D105F0F6FD04232B7022E7082A7FF4F3AD04
:201F6000EFE5164804F04CF82B78022B02D0082B7FF479AF05F0E4FD75E7104804F040F8D1
:201F80002B78022BB3D0082BB1D0AEE70749CB5C002B7FF414AF0EE7082ADBD1D8E7082A09
:201FA0007FF44DAF49E700BFEB12002064BD0000E40100203802002080020020080000205C
:201FC0008402002094BD000090BD00004360CA699A4205D38A6902600B67CB610020704769
:201FE00001F1280202608B6700207047F0B504680E7A002C00F07284A4F212347C2C00F279
:20200000C1827C2C00F2BE82DFE814F074020003DE02CF02C7022A0307032303BC02BC020C
:20202000BC02BC02BC02BC026702D702BC02BC02BC02BC02CC010F03E602BC02BC02BC026D
:20204000F401EE038C03BC02BC02BC02BC02FF00CB034803BC02BC02BC02BC02BC02BC0287
:202060006402BC02BC02BC02BC0219019B039303AC035703BC02BC02C3038403B4033903EF
:202080005F03BC02BC024103DB015003ED00BC02BC023203DB00F503BD00BC03BC02BC0286
:2020A000BC02BC02BC02BC02BC02BC02BC02BC02BC02BC02BC02BC02BC02BC02BC02BC0240
:2020C000BC02C900D303BC02BC02BC026703BC02BC02BC02BC02AC00BC02BC02BC02BC0263
:2020E000AC00BC02BC02BC02BC02BC02BC027D00C002BC02BC02BC02BC02B800BC02BC0255
:20210000BC02BC02B80001240025002A00F0CD8307795755A3424FF00005057140F27C83DB
:20212000171901343D70B04D0F7D2D682D78AF4200F0B0838F7DAF4209D10025A34205715F
:2021400040F24D85254601340AB107795755DFF8A0C2A64F9CF800503F780135EDB28CF8D2
:2021600000507BE1012500240AB1077917554024AB42047140F289836C1CC6E7012400253F
:20218000002AE2D1E3E701240025002A40F031848D7D0571A34240F262830134FFE0012589
:2021A0000024002A00F03D8307791755AB424FF00504047140F27E83274602EB050C6C1C65
:2021C000FDE201250024002A40F011840624AB42047140F23F8301350C7D0471AB4240F214
:2021E00091836C1CD4E701250024002A40F003840524AB42047140F228836C1C2425A3423F
:20220000057140F27583651CE0E701240025002A00F0FA83077957554FF0000CA34280F821
:2022200004C040F29084651C0027AB4202F804C0077140F2F383541901352770F3E00125EE
:202240000024002A00F0EF8307791755AB424FF02404047140F2C183274605F1010C00240F
:2022600063455755047140F2A98325460CF101071024BB4202F80C50047140F2908325461B
:2022800007F1010C01246345D555047140F2788325460CEB04070524BB4202F80C50047142
:2022A00040F25D83254607F1010C24246345D555047140F24A8325460CF101070124BB427C
:2022C00002F80C50047140F23683254607EB040C03246345D555047140F228830CF101078B
:2022E00002F80C40BB4291F816C080F804C040F218837C1C0425A34202F807C0057140F224
:202300000B8302EB040C2F4601342425A3428CF80070057140F2FB822F46651C1755AB42F2
:202320004FF00204047140F29F82274602EB050C6C1C0225A3428CF80070057140F2DD8296
:202340002F46651C1755AB424FF00504047140F27C82274602EB050C6C1C2425A3428CF89C
:202360000070057140F2C4822F46651C1755AB424FF00604047140F26D82571901353C707F
:202380000F7D0771AB4240F2BD826C1C5755A3428D7D057140F26382171901343D70124DBA
:2023A0002D6851E001270024002A00F04082057915559F424FF00004047180F0F5827D1C2E
:2023C00039E101250024002A40F017830224AB42047140F249826C1C0225A342057140F2E4
:2023E0008C82651C04E700BF88020020EC120020EE12002001240025002A00F098830779BD
:2024000057559C424FF00205057180F05883671C1555BB424C7E047140F2E48202EB070C6A
:202420007D1C8CF800400024AB42047140F221826C1C0AB107795755C64D91F814C02D6870
:202440002F78BC4500F01A82DFF810E3DFF810C36F788EF8007000258CF80050BD423FD3ED
:20246000BD4F3D780135EDB23D70AE4240F2CA810925A342057140F25583651C002A00F07E
:20248000128307791755AB424FF00404047140F2B682274602EB050C6C1C8CF800700F7A38
:2024A000AD4D2D78AF4240F2AC8305EB450501F10907DFF8A0C217F805E080F804E03D44E5
:2024C0009C42CCF8005080F07E82671C002A7FF46EAFACE101240025ABE701250024CDE7F6
:2024E0000725A342057140F29281651C002A7FF45BAE96E1002A00F0EB8204791470012BBE
:202500004FF00B04047140F2238302250127D455AB420F7D077140F25B8205F1010C02247F
:2025200063455755047140F2448225460CF101070224BB4202F80C50047140F22B82254632
:2025400007F1010C02246345D555047140F213820CF1010702F80C40BB4291F819C080F820
:2025600004C040F2F7817C1C0025A34202F807C0057140F2E581171901343D70764F002580
:202580003D7072E7002303601846F0BD002A00F0F282057917460124C4E5002A00F0F282DF
:2025A00005794FF0010C0027CCE7002A00F0EC82057901274FF0000CBAE7002A00F0FF82C2
:2025C00007799446012468E7002A00F0D78207794FF0010C0025A2E75E4C002A00F0E68214
:2025E00007792468944601258CF8007024780F7DA74200F0B9818F7DA7427FF414AF0A2447
:202600009D42047180F0F5826C1C00E6002A00F0D28204790125002779E7002A00F0B0822D
:2026200090F804C0012400279EE7002A00F0C182047901250027DFF81CC1D455DCF8004065
:20264000AB426778077140F2A08102EB050C0135CAE7002A00F0B1820579174601248CE73E
:20266000002A00F08482047901274FF0000C71E7002A00F0A7820779944601246DE6002AB3
:2026800000F08E82047901274FF0000C28E6002A00F0A18207799446012436E6002A00F04A
:2026A00000821446077927700125BCE6002A00F08E820779944601243BE6002A00F0728287
:2026C000057901274FF0000CE5E5002A00F0608290F804C0012400270CE61E4C012527689A
:2026E00000241AB190F804C002F804C03C780F7DA74200F0E9808F7DA7427FF438AD0224EC
:20270000AB42047140F270822C460135002A7FF42CAD2CE5002A00F04782057901274FF03C
:20272000000CCBE5002A00F0BC8104799446012577E6002A00F01682057901274FF0000C09
:2027400096E5002A00F0458207794FF0010C002585E500BF88020020ED120020EC1200201C
:20276000EE120020002A00F0308205794FF0010C002787E5002A00F00F8205794FF0010C9B
:202780000027A5E5002A00F0F48105791746012404E6002A00F0218205794FF0010C002761
:2027A00083E5002A00F0F68190F804C0012500243AE5002A00F0EA810779944601248CF8E3
:2027C0000070C14FC14D3F682D7897F801C0AC4540F2148297F802C03D44A34215F80C50F6
:2027E00005716CD9651C7CE7002A00F0D7810579012700240CE6002A00F0B68104791746E1
:202800000125BCE540F2993303600120F0BD40F26D3303600120F0BD4FF461730360012024
:20282000F0BD0524AB42047144D96C1CC9E79F42027180F0B9807D1CA34C2468AB4267782E
:20284000077140F2A2800135D0E640F2553303600120F0BD40F2573303600120F0BD40F2B6
:20286000593303600120F0BD40F2513303600120F0BD4FF44F7303600120F0BD0525A3426F
:20288000057140F21781651CDBE440F2833303600120F0BD0D6AA3422D7805713FF652ACF5
:2028A00040F2893303600120F0BDA3420271B3D9013438E440F26E3303600120F0BD40F28E
:2028C000723303600120F0BD0324AB4204713FF61BAF40F2773303600120F0BD08240471EC
:2028E000002B7FF407AE40F2123303600120F0BD40F2563303600120F0BD40F252330360D7
:202900000120F0BD4FF4567303600120F0BD4FF4547303600120F0BD40F24F330360012039
:20292000F0BD4FF4537303600120F0BD40F24B3303600120F0BD40F24A3303600120F0BDEF
:2029400040F2193303600120F0BD40F2493303600120F0BD4FF4467303600120F0BD4FF479
:20296000527303600120F0BD02249D42047180F0F4806C1C40E540F2173303600120F0BDA9
:2029800040F2453303600120F0BD4FF44A7303600120F0BD40F2163303600120F0BD4FF43C
:2029A000517303600120F0BD40F2273303600120F0BD40F2153303600120F0BD40F2433312
:2029C00003600120F0BD40F2263303600120F0BD4FF4457303600120F0BD40F242330360D4
:2029E0000120F0BD40F22E3303600120F0BD0779BCE40779CAE40779A4E407798EE440F2CB
:202A0000213303600120F0BDA342027140F29B80013400259C420571C0F0938040F2353381
:202A200003600120F0BD2424AB420471D5D96C1C00259C420571C1D2013410259C420571BB
:202A4000ADD2013401259C42057199D22C4405259C42057183D2013424259C420571BFF415
:202A600074AF013401259C420571BFF464AF2C4403259C420571BFF459AF01348D7D057162
:202A80009C42BFF44EAF01340425A34205717FF643AF01342425A34205717FF638AF651CD2
:202AA00094E40125BFE40424AB420471A7D90F7A6C1CF5E440F2413303600120F0BD40F2D8
:202AC0002D3303600120F0BD88020020EE1200200B24012B04713BD902240D7D05719C42B3
:202AE000BFF476AF01340225A34205717FF661AF013402259C420571BFF44CAF0134022508
:202B0000A34205717FF637AF01344D7E05719C42BFF420AF013400259C420571BFF410AF09
:202B200001342BE54FF4487303600120F0BD02259C420571C3D201344D7E05719C42BFF40A
:202B400051AF651C6FE44FF44D7303600120F0BD40F2133303600120F0BD4FF44B73036060
:202B60000120F0BD012468E70125FFF735BB0124CBE7012413E40124FFF7D5BA0124B2E7AC
:202B80000124C8E70124BAE70124B2E7012418E6012479E701243CE7012469E70124CBE7A1
:202BA00001246BE7012452E701245BE7246801251CE5012540E601248FE70124DEE43746DB
:202BC00001246DE40124FFF719BB01243AE7012402E401242CE701245CE701243CE740F225
:202BE0008E3303600120F0BD4FF45F7303600120F0BD40F2333303600120F0BD00231B781E
:202C0000FFDE024A002313601B78FFDE8802002070B90B681A7B202A01D0062070471A4652
:202C200052F80E1F9961918892799A7799837047032070474360CA699A4210D38A6910B4F5
:202C40000260C8690C6FC01A1C441A44C86100380C6718BF01205DF8044B8A61704701F1CA
:202C60002802026000208B67704700BF2DE9F0470B7888B00D4606460E2B14D8DFE803F0BA
:202C800008180808130D281313181308080808000024204608B0BDE8F0874B78DA0930D146
:202CA0005B09012B4CD00624204608B0BDE8F0870368002403F134022046C3E91E44C3E92B
:202CC00020445A671C845C62DC6208B0BDE8F087027A8B78002A00F06581817A0930002983
:202CE00000F05E81F17A415C9942D1D01B061ED4EF7807F0FD03012BCAD0002F65D00324BF
:202D0000C7E713F0600FC3F3411200F09180012AC9D18B78212BC6D1B1F80720072AC2D14A
:202D20000168681C183100F073FA0446B1E7EC78002C00F09D80032C14BF03240024A8E7A5
:202D40008B780768202B00F09B80222BABD1B1F80730002BA7D1B1F8035097F820303D84C3
:202D600005F0010203F001039342154690D0C3691BB1C2F10301C9B29847002D88D1337A98
:202D8000012B40F20B81737B06F10C04002B00F00381B37BE05C05F0D3FC337A012B40F27C
:202DA000FD80737B012B40F2F780B37B23442C46587805F0C5FC07F13403C7E91E55C7E944
:202DC00020557D62FD627B6763E73568012A05F10C0140F2DF80727B012A06F10C0340F268
:202DE000D7800691B27B704905911344AC6A93F80180002C60D1EA6FEB6AAC67C5E91F42C3
:202E0000002B00F0B480296B1846002205F1240383E803004046EA6205A9FEF733FD0446D5
:202E2000F369002B3FF435AF30460021984730E703F01F03012B7FF436AF8C78062C7FF425
:202E400032AF05A8039200F0D5FC03AA00920746EA78297930463B46FEF7E8FA05283FF4D0
:202E600018AF039A3946681C00F0D2F9044610E7F369002B3FF40CAF30460121984708E714
:202E8000B1F80720072A7FF40EAF3B73B1F80730DBB27B7300200E37CDE90573079000F0DE
:202EA0008BFF002005A9FEF7D9FC0446002867D0002000F089FFECE6D5F88490686A4C4599
:202EC00028BF4C4605F1340A2246514608F0BAFDE86FEA6AEF67A9EB04030AEB04010444B9
:202EE000C5E91D13C5F88040002A43D005F12C0797E8030005F12404002284E80300EA6294
:202F0000002B3BD091461BE0696F686A08F09AFDD5E91D32A96AC5F880100B44521AC5E99A
:202F20001D32F36913B1002130469847EB6A13B397E8030084E80300AB6FC5F82C90EBB171
:202F4000AA6A9342E0D2696F686A1A4608F07AFDD5E90932A96FE967521A0B44C5E9093258
:202F600053B1404605A9FEF78DFC044658E700236B6255E700236B62002451E76B6AEFE7EF
:202F80000A4B049603A9039300F020FC04468FE73B78FFDE7B78FFDE2B78FFDE6B78FFDE94
:202FA0000B78FFDE5378FFDE352C0000112C000010B503681C8CE40784B015D50B46017ABE
:202FC000012916D9417B00F10C0481B1817B605C91060CBF0124002401A9CDE9013203945C
:202FE000FEF73CFC04B010BD082004B010BD0B78FFDE00235B78FFDE0368D3F880007047DA
:20300000F0B50468238CDB0783B022D50546002016460F4600F0D0FEA26F42B9636AE3B19D
:203020001124002000F0D0FE204603B0F0BD964228BF1646616F3246384608F003FDD4E921
:203040001D239B1B3244C4E91D23C4F880600024E7E70824204603B0F0BDC4E909762A7AC7
:20306000012A12D9697B012905F10C020FD9AB7B0849009113440C34587801946946FEF798
:2030800001FC041E08BF9224CBE75B78FFDE1B78FFDE00BFCD1F0000002070472DE9F04FEB
:2030A0004B6885B0CDE900020C46002B71D004F06DFEE568019B9D4228BF1D468146002D4D
:2030C0007CD04FF0000A5646D3464FF00108D4E90113AB421F4628BF2F46E9B13A4609EBD1
:2030E000060008F0AFFCD4E90223D21BDB1BC4E90223C4F804B0ED1B3E442AB3002B08BFC7
:203100004FF00008002DE2D1009BC3F800905E60404605B0BDE8F08FABB120463B4650F8FA
:20312000101B4A68D2F804A009EB0602D047D4E90223D21BDB1BC4E90223ED1B3E445AB105
:203140004FF0010ADAE7E368BAF1000F04D15BB99846002DBBD1D7E7226812681268226021
:203160004FF0010A002BF3D02168F1B1CDF808B003E0A36821680133A3604B6800225F6825
:2031800002A80123B8470028F3D12061002D9ED1BAE70B681B681B68002B88D18B68002B9D
:2031A00085D1036043609846B2E76160002EABD0019BB34288BF4FF00008A5E72E464FF074
:2031C0000108A1E7054B0528187004D0044A137823F0020313700348FEF7F2BBEF12002003
:2031E000F0120020BCBD000008B50020FEF7CAFABDE808408020FEF7C5BA00BF08B5002001
:20320000FEF7D4FABDE808408020FEF7CFBA00BF70B5C38893421E4628BF1646934284B02C
:203220000D4612D8002400200394CDE9015600F0C3FD01A98020FEF711FB044688B10020CB
:2032400000F0C2FD204604B070BD8020144604F091FCB4FBF0F202FB1044B4FA84F4640988
:20326000E1E704F06DFE80280BD1094A094B92E8030083E80300002000F0A6FD204604B044
:2032800070BD002000F0A0FD1024204604B070BDF4BD0000B00200202DE9F04F0B780E2B45
:2032A00089B018D8F3B1013B0D2B1BD8DFE803F01F0E281A354C1A1A1A1A0E666F07B24BE1
:2032C0001B78012B02D00120FFF77CFF0024204609B0BDE8F08F852B04D1AB4B1B78032B28
:2032E00000F040810624204609B0BDE8F08FA64B1B78032BF6D00320FFF764FF0624E6E7C5
:20330000A24802F001FE0028E0D0A14B01221A60BFF36F8FBFF34F8FD8E705230DF1150037
:203320008DF8143004F074FD9DF81530994E002203F01F043260032C00F2B980DFE814F0AF
:20334000E800B90099008D00C87803280D46C9D0904E3368002B00F00381002271683260AA
:203360009847044600287ED13368002B00F00581AB78002BAAD104F06DFDA8E7824B1B785B
:20338000002BA3D00020FFF71DFF00249FE74FF08043D3F8383413F0010F7B4B1B7806D038
:2033A000022B93D00220FFF70DFF00248FE7012B89D18BE7BDF81B30002B00F0D880092B20
:2033C00028BF09239946FEF7F3F90546002800F0DB81BB464FF0090ACDF80CB04FF0000840
:2033E00001E008F101086A68012357682946002203A8B8470028F4D12A682B7A15681C44F9
:20340000C244E4B2002DE7D1634D644928464A4608F018FB2C71A5F802A0FEF7ABF918B187
:20342000EB7943F02003EB71FEF7C2F95C4BBDF81B2018600020C3E90159DA6000F0BCFCAF
:2034400058498020FEF71EFA0446002800F09F81002000F0B9FC062C05D105A8FEF7E8F94C
:203460000446002C73D004F061FD204609B0BDE8F08F9DF81900020707D005A9FEF7C2F912
:2034800006280446EDD19DF8153013F0600F0ED19DF816303C4A9DF819401278012B00F0D6
:2034A000B980032B00F0A680002B00F0C6800624D9E79DF8190003A9FEF780F90546002809
:2034C00059D09DF80C1005AAFEF798F906280446C7D19DF8152012F0600FC4D12A4B9DF8F3
:2034E0000C101B78D20940F014819DF816200B2AB9D1052B40F0B280BDF81730FF2B00F249
:20350000FC809DF817202846FEF7D0F90446A8E713F0600FC3F341179FD1DB0948D19DF8DC
:203520001630032B00F09C80092B00F0A880012B93D1BDF81730012B8FD1FEF71BF9002876
:2035400000F0D980184A137823F00203137033686BB104F0F5FC044600287FF4B7AE0AE7C3
:203560000E2480E70420FFF72DFE0624AFE604F0D3FC0024ABE6102475E70C4B1B68082B99
:2035800033D004F0C9FCA2E6EF120020B80200205C700240B0020020BC020020C0BD0000B1
:2035A00098020020FCBD0000F0120020300100109DF81620062A00F08780082A73D0002AA4
:2035C0007FF44BAF7B497C4B09781A80890744BF02221A7078490DF115000222FFF718FE93
:2035E0000446062C7FF43DAF37E7744B1B68002BC7D16BE625073FF55AAFBDF81730002BEC
:203600007FF455AF052A01D0200727D1204604F0C1FB9CE721073FF54AAFBDF81730002BFF
:203620007FF445AF052A01D0230717D1204604F0DFFB204604F01AFF89E7052A01D02707CC
:203640000CD1204604F0B2FB5B49034602220DF115000B80FFF7DCFD044602E7082402E7C0
:20366000BDF81730012B7FF4F8AEFEF783F8002841D0504A137843F00203137067E7504C96
:203680002378043B012BE9D89DF81730BBB3012B33D1FEF767F92378052B3FF458AF05206A
:2036A000FFF790FD53E7464A1278052A47D0042A7FF4D3AE404B1F703F490DF115000122F3
:2036C000FFF7A6FD04468CE79DF81830022B3FF471AE032B36D0012B7FF4BFAEBDF81B30F8
:2036E000002B3FF444AF37490DF115001222FFF78FFD044675E70F24B5E60724B3E6FEF703
:2037000049F92378042B3FF422AF0420FFF75AFD1DE79DF816705FB30A2F7FF4A4AE052BC9
:203720009CD128460192FEF717F92349019A03460B700DF11500FFF76BFD044691E61E4AB1
:203740001370B9E7BDF81B30002B3FF410AFBDF819109DF8170000F01DFB014600283FF4F5
:203760007CAE0A780DF11500FFF752FD044638E7052B7FF473AF10490DF1150002220F80F8
:20378000FFF746FD04466CE64FF0090A3CE604F0D7FB802808D10C4B93E8030086E8030053
:2037A000204600F011FBD2E6204600F00DFB102459E600BFF0120020BC020020340100101A
:2037C000EF120020E0BD0000F4BD000038B505460C4604F0B5FBA84207D194E80300044ABD
:2037E00082E803000023184638BD1023184638BDB002002008B1402303600148704700BF50
:20380000BC020020F0B40D7A0DB101F109050468002C59D06FF4AB763444142C00F24A8127
:20382000142C00F24781DFE814F05400E700EE00F500FC00030109011001170145014501E6
:203840001E0125012C0145013B0033012700390115003F0101250024002A40F0DB818A8A77
:20386000AB424FEA1222027140F2338140F26D1303600120F0BC704701250024002A40F058
:20388000CD814A8AAB424FEA1222027140F226816C1C8A8A0271A34240F27B81651CDEE7F8
:2038A00001250024002A40F0B7810A8AAB424FEA1222027140F217816C1C4A8A0271A3424D
:2038C00040F26C81651CDCE709240471002B00F0F680002A00F0A48104791470012B4FF0A7
:2038E0000404047140F2F0800227012694559F422D78057180F089817E1C0024B342D5551D
:20390000047140F27D812546771C0024BB429555047140F2708125467E1CFF24B342D5551A
:20392000047140F263812546771C0124BB429555047140F2568125463E190124B342D5556E
:20394000047140F249812546371900249F429555047180F03C8125467E1C09249E42D5556E
:20396000047180F02F812546771C21249F429555047180F0228126467C1C09259C42D655E1
:20398000057180F015811619013435700E7C0671A34240F20881651C16550E8A9D424FEA65
:2039A0001626067180F09F8057196C1C3E708E7C06719C4280F0F280651C16554E8A9D423B
:2039C0004FEA1626067180F0898057196C1C3E700E7D0671A34240F2DC80651C1655898A68
:2039E0009D424FEA1121017173D22A44117040F26D13036001203DE7002A00F0B3800479B3
:203A00000127002672E7002A00F0A58005790126002772E7002A00F097800579012700269E
:203A200073E7002A00F0898005790126002774E7002A5DD005790127002676E7002A00F048
:203A40009E8005790126002777E7002A00F0958005790127002678E7002A00F08C80057920
:203A60000126002779E7002A00F083800579012700267AE7002A00F08A800679012400275F
:203A80007BE7002A00F081800579164601247CE7002A78D006791746012487E7002A70D0FC
:203AA00006791746012492E7002A3FF4DFAE017911709CE7002303601846F0BC704740F2AB
:203AC000571303600120F8E74FF4AC7303600120F3E740F26B1303600120EEE740F26913A2
:203AE00003600120E9E740F2671303600120E4E701240122A342027173D914440122A3422B
:203B0000027169D9144400229C4202715FD2013409229C42027155D2013421229C42027153
:203B20004BD2013409229C42027141D201340A8A0271A34237D9651CB7E60124FF229C4231
:203B4000027153D20134D4E701240022A342027151D90134F2E701240022A34202714FD93F
:203B60000134F2E701242A780271A3424DD90134F2E70124D1E70124CAE70124C3E701243D
:203B8000BCE7012485E6012497E60124CFE70124C8E74FF4B573036001208EE74FF4B473D3
:203BA0000360012089E74FF4B3730360012084E74FF4B273036001207FE740F2631303605C
:203BC00001207AE74FF4B1730360012075E740F25F130360012070E74FF4AF7303600120B4
:203BE0006BE740F25D130360012066E74FF4AE730360012061E740F25B13036001205CE769
:203C00004FF4AD730360012057E740F259130360012052E70679E1E60679BDE60679CCE68B
:203C20000422012B02717FF64FAF02249BE700BF0B780E2B0BD8DFE803F0080808080A0C56
:203C4000080A0A0A0A08080808000020704706207047F0B54B78DA0985B00C46064611D160
:203C60005B09012B02D0062005B0F0BD8C78002CF9D102681373036A002B3AD02146984788
:203C80002046F1E713F0600FC3F3411215D0012AE9D18B78072B07D0082BE4D1F268481CEF
:203CA000B169FFF7B5FADFE7B1F80720182ADAD1C169601CFFF7ACFAD6E703F01F03012B82
:203CC000D1D18D78062DCED103A80292FFF792FD02AA00920746E278217930463B46FDF73D
:203CE000A5FB0528BFD0029A3946601CFFF790FABAE71846B8E700BF70B54FF0805286B088
:203D0000D2F8A830D2F8A42000926FEA83436FEA93430B4A0B4E9BB202A80D2105F03CFC93
:203D200002AD002404E015F8013B06F8013B013402A807F09DFE8442F5D306B070BD00BFA8
:203D400018BE00000813002038B5114B53F8204023780BB9A01C38BD0020FFF74BFD217857
:203D600091B12246C4F101055319DCB2234620F8141012F8011F0029F6D101335B00DBB209
:203D800043F44073038038BD40F20233FAE700BF80BE000040B1052808D8054A105C28B1EA
:203DA000044B53F820300BB1FFF7CEBF0020704798BE000080BE000072B6024A136801334C
:203DC00013607047FC020020034A1368013B136003B962B6704700BFFC02002010B50446AD
:203DE000006830B1002105F023F954F8040F0028F8D110BD2DE9F043038883B0044643B1E6
:203E0000B3F5867F0CD1822910D0012003B0BDE8F0834FF486730120238003B0BDE8F083D6
:203E200000230380032003B0BDE8F08301F070FABFF35F8F19491A4B0E6800220A601F7893
:203E40001A70FFB2BFF35F8F164D01F065FA28680028DED0DFF85090DFF8508003E055F8E0
:203E6000040F0028D5D090F84A3026FA03F3DA07F5D590F8493047FA03F3DB07EFD500F0D1
:203E800057FD0028EBD02B68D9F80020009218464246022100F00CFDE1E700BF1003002019
:203EA000F112002060000020301400204D3F000010B50C4A90F84B30126882B001330092DF
:203EC000044680F84B30084A03468021203000F0EFFC064B19782246002002B0BDE810402D
:203EE00005F02AB930140020B13E00003914002010B4094A094C1368194311602178034694
:203F0000012202FA03F30B43DBB2237004485DF8044B05F033B900BF10030020F112002038
:203F20006800002010B5044690F84A1090F8490001F0B0F910B994F8480010BD01280ABF41
:203F400094F84800002080F0010010BD70B582B0044600F0EDFC08B902B070BD04F12006FA
:203F6000304600F0E5FC05462046FFF7DBFF01280FD00028F0D1002DEED1304600F0BEFC7C
:203F80000D4B22462846197802B0BDE8704005F0D3B8002DE0D0094B094A1B68009300251C
:203FA0003046234684F84B507E2100F081FC054B28462246E7E700BF38140020301400207C
:203FC000B13E00003A140020F8B505F029F8304B304C187005F024F82F4B304F187005F0BB
:203FE0001FF82F4922682F4B08700025FF2139727B60FD60002A42D02B4E09E091F84A001D
:20400000F9683A72834054F8042F0B43FB60B2B392F84A3092F84910526C03F01F0343EA5C
:2040200041131F2BC6BF03F01F0331464FF0A04103F5E07342F08C0241F82350236893F8E4
:204040004A1093F8490001F0E3F8226892F84A3092F8490003F01F0343EA4010012102F05F
:20406000C5F92168387A91F8492082424FF00103C4D0FF28C2D054F8042F002AC8D10B486C
:20408000002104F0D5FFBDE8F840044801F016B93A140020600000203814002000030020D1
:2040A00039140020F13E0000000300506800002030B5174B83B000221A6001F057FF00BB71
:2040C000002001F06FFF134B134A93E80300FF250090ADF80410062400231048ADF8005021
:2040E00069468DF802408DF8043002F0F5FB58B901210A4802F044FC084802F035FC03B0D2
:2041000030BDFDF72BF9DBE7FDF728F9F0E700BF14030020CCBE00004D410000D4BE00004C
:20412000014B1868704700BF1403002008B5064A13680133136000F007FD00B908BDBDE8C0
:20414000084000F0E7BC00BF14030020042800D07047FFF7EBBF00BF014B1868C009704730
:20416000140300202DE9F04104F072FEFFF7A0FF05F0C2F804F07EFF00215048504FDFF879
:204180008881504D504C514E04F052FF00F082FB06F050FB05F042FA04F062FE05F00CF8CD
:2041A0004B4B1B6898477B689847D8F804309847A979EB79226803EB0123022A338011DC74
:2041C00004F070FE4348FFF709FE06F05DFB04F057FF044606F060FB14F0FF0FF7D104F0F4
:2041E00067FEF4E73C4A3D493D4804F07DFE3D4804F0D4FF2368022BE2DD374A374938483B
:2042000004F072FE384B3948196804F06DFE2368022BD5DD304A3149314804F065FED8F858
:204220000010334804F060FE2368022BC8DD2A4A2A492B4804F058FE39682E4804F054FE43
:204240002368022BBCDD244A2449254804F04CFE29484AF6CD3104F047FE2368022BAFDD5B
:204260001D4A1E491E4804F03FFE24481A2104F03BFE2368022BA3DD174A1849184804F0B7
:2042800033FE31881E4804F02FFE2368022B97DD114A1249124804F027FE1A4804F024FEE0
:2042A0002368022B8CDD284601F0F6F82368022B86DD0A2004F070FF82E700BFAC000020F4
:2042C000C8BF000018130020BC000020E412002090C0000040C30000DCBE0000E4BE00008B
:2042E000ECBE0000FCBE000094C1000034BF000044BF000050BF00005CBF000078BF0000AE
:2043000098BF0000A8BF000078C1000030B590F82D50012D83B0044611D91F2504F0B0FF40
:20432000094BB0FBF5F11B68009301FB1501074A234604F10C0000F0BBFA03B030BDE91C6B
:2043400001258D40013DE9E730140020D14300002DE9F0470D468B6892F82C708146506BA9
:20436000D3E90068144601F073F8686804F05AFFA968134801F050F91248294601F04CF9A1
:20438000636B1B6873B10023A3852046FFF7BEFF36B13A46494640463346BDE8F047184714
:2043A000BDE8F08704F10C0000F0A8FA2146064801F04EF82146054801F02EF9E8E700BF08
:2043C00078000020900000208003002084000020F8B12DE9F047436B1D6882B00446ADB14B
:2043E000686804F035FF63490C2004F019FD0121072004F009FD00F059F900280ADAAB683F
:2044000023B1052022462946FFF7A2FF02B0BDE8F087704704F052FCDFF85C8190F80290A0
:20442000D8F8047004F04AFC064604F051FC01463046B84704F004FDD8F818600746B04734
:2044400070BB002F50D1D8F81CA0D04740BBD8F8087004F03DFCB84700285CD002281FD062
:20446000AB68002BD2D00420CCE704F079FF6FF028031E1A03E004F073FFC64202D5D04718
:204480000028F8D0D04700285DD0D8F81030032101A89847032803D19DF806304B452AD0B0
:2044A000AA68002AB2D094F82D300133DBB2052B84F82D3094F82C3006D90133DBB20021E2
:2044C00084F82C3084F82D10127A9A4205D8224629460120FFF73CFF98E72046FFF716FFED
:2044E000686804F099FE91E7D8F8086004F0F0FBB0470028B2D1AB68002B87D094F82C30B3
:2045000000200133294684F82C3084F82D002246FFF71EFF7AE704F023FF6FF018073F1A8E
:2045200003E004F01DFFC74202D5D0470028F8D0B047002899D1D047002896D1D8F814305E
:204540009847002891D0A96800293FF45FAF94F82C300133DBB2002284F82C3084F82D200C
:204560000A7A9A42B9D8224629460220FFF7F0FE4CE700BF1813002090C000002DE9F04199
:2045800005460D200F4604F053FC064600F0B4FF01210B2004F038FC374B1C6814B914E0E0
:2045A000246894B13146201D00F01CFF0028F7D0606B00F067FF07281EDDDDB138462B46B4
:2045C0000122BDE8F041062118472C4801F008F804460028F1D03146201D00F0FDFE002302
:2045E00004F13002C4E90C322348A385214600F001FFDDE7BDE8F081214800F0F1FF064650
:2046000060B3204800F0ECFFB06018B304F0E2FD7060D8B10520D6F8088004F0FBFBC8E927
:20462000005710F0FF0006BF082388F8083088F80800606B314600F0DDFE636B1B689E42B6
:20464000D8D12046BDE8F041FFF760BEB1680D4800F0E2FF0A48314600F0DEFF606B00F0D1
:2046600011FF0028A9D12146034800F0F1FE2146024800F0D1FFA0E78003002084000020B8
:20468000900000207800002008B5054800F096FF044800F093FFBDE80840034800F08EBF00
:2046A00090000020780000208400002010B501210B2004F0A9FB024BBDE810405B68184700
:2046C00000C00000014B9B68184700BF00C00000014B1B6A184700BF90C00000014B5B6A9D
:2046E000184700BF90C0000010B50D4B82B01B6898470C4B04469B6A01A91920984701280A
:204700000BD0002C0198B8BF15248028D4BFC4EB0000C4F1800002B010BD002002B010BD0C
:2047200000C0000090C00000FFF728BF00B583B004F0C8FA032802D103B05DF804FBFFF7F3
:20474000C1FF0028F8DB0D2004F072FB1F4900F049FEE8B10C2004F06BFB1C4900F042FEBD
:204760000028E9D100F0D2FEB8B1072004F052FB0028E1D00223ADF8043004F09FFA144B03
:204780008278DB688DF80620032101A89847D3E704F056FB0028DDD1CEE700F0DDFE072009
:2047A00004F038FB18B90B4B9B689847C4E70223ADF8043004F082FA054B8278DB688DF89E
:2047C0000620032101A89847EDE700BF1813002090C0000078C1000030B50D4C83B0A56A20
:2047E00069461920A84748B901A90420A84738B100F07AFEFFF748FF236A984703B030BD8A
:204800000199E36A21F00201019104209847EFE790C00000F8B5038805462BB14A2B14D129
:20482000882916D00120F8BD174B1C6834B1A168201D00F075F92468002CF8D1134B01229A
:204840001A704A232B800120F8BD002303800320F8BD0D4B1C68002CF3D0231D9A4205D0A6
:204860002468231D002CECD09A42F9D10648084E214600F0EDFDD4E90523376832600BB127
:20488000E06998473760DCE760040020F212002030140020034A044B044800211170196087
:2048A00004F0C6BBF2120020600400209C00002070B50E4C049E25784661C0E9062304469E
:2048C00035B9A1600A482146BDE8704000F092BD084D094B2E682B60043000F021F92E6006
:2048E00021460348BDE8704000F084BDF212002060040020301400209C00002010B50A4B9E
:204900001B7804463BB9C0E9033321460748BDE8104000F09DBD043000F01EF92146034805
:20492000BDE8104000F094BDF212002060040020094B1A7842B9094B01E0984209D01B684D
:20494000002BFAD1012070470069B0FA80F0400970470020704700BFF212002060040020C8
:2049600010B50446C0B205F031FF0A2C01D0204610BD05F0FBFE204610BD00BFF8B588B191
:204980000F46461E002500E0013516F8014F20464CB1AF4207D005F019FF0A2CF4D105F09D
:2049A000E5FEF1E7054605F0E1FE2846F8BD00BF10B5FFF7B5FB0B4B1A68D2E90031926812
:2049C0000B44191A52B1D2E9003423441B1A9268994228BF1946002AF5D14318024A1360A2
:2049E00010BD00BF68040020640400202DE9F843038805465BB3592B2CD187292FD0822907
:204A000020D12C4FDFF8B4803C684FF00009CCB1002603E0A3682646A3B11C46204605F025
:204A2000FBFC0028F6D0E0682246882104F084FB03464046002B2AD004F0A0FBA3682646CB
:204A4000002BEAD159232B800120BDE8F883194A1360F7E7002303800320BDE8F883154F07
:204A60003968002019B9EDE789680120D9B1CB689342F9D000B139608B68002BE2D0D86808
:204A8000904207BF9B688B6019469B68F5E7E360A3686EB1B3603B68C4F808902BB1FFF709
:204AA00087FF3C68B3E73960CCE7034A1360C9E73B60F1E76804002064040020AC00002023
:204AC00010B50446104804F059FB1049E3680A684BB142B194420FD0134601E09C420BD07A
:204AE0009B68002BFAD10A4BA2601B68E3600C60BDE81040FFF75CBF054B1B68E360BDE873
:204B00001040FFF755BF00BFAC0000206804002030140020014804F031BB00BFAC0000200C
:204B200010B5044605F062FC2046BDE81040FFF7C7BF00BF10B5044605F060FC2046BDE812
:204B40001040FFF7BDBF00BF024B1868003818BF012070476804002010B5124B196881422E
:204B6000044614D00B462BB19A68A24206D01346002BF9D10023C4E9023310BDA2689A60FA
:204B800049B1FFF715FF0023C4E9023310BD82681A60002AF5D1044B00221A600023C4E930
:204BA000023310BD6804002064040020014B1888704700BFBC01002000283ED0037A022BC0
:204BC00030B410D00378022B15D00379B3B10024C37913F0030318BF012301B10C6002B16F
:204BE000136030BC7047C579447A037965B90CB9012BF2D0DBB100231C46EEE7447A14F0AE
:204C0000030418BF0124E3E7C4B1032D37D1032C2ED0022C24D143BB022D2DD00123032D4C
:204C200024D1A4F10204B4FA84F46409D5E7023C012C8CBF00240124CFE770474BB9022DF6
:204C400008BF0123EAD1A4F10304B4FA84F46409C3E7032D01D0022D02D123461C46BCE764
:204C6000002BC8D1022DDAD1EDE701230024B4E7002BC0D10123D4E701231C46ADE7022DFB
:204C8000C7D1002BF1D1022C4FF00103DBD11C46A3E700BF30B500230B608B80437DDB07A7
:204CA0005CBF01230B70037E012B83B00D46044623D901AA694604F11000FFF77DFF009B55
:204CC0000BB10223EB70019B0BB102236B70E37D03F00303022B03D0032B14BF0023082398
:204CE000AB70637E03F00303022B03D0032B14BF002308232B7103B030BDC37D13F00303EB
:204D000009D0437E13F0030305D0C38B828B9B1AB3FA83F35B092375CBE700BF02280CBF86
:204D2000012307230B441A78FF2A184603F1FF3303D18142F7D1012070470020704700BFCA
:204D400030B583B06946FFF7A5FF9DF800309DF801509DF802409DF803109DF804209DF87A
:204D6000050002332B4423440B441344184403B030BD00BF70B4437882780578C478DB0055
:204D8000120102F0100203F008031343027905F0070564012B4304F020049201234302F056
:204DA000400213430B7043798579467AC479027A03F001036D0043EA861305F00205A000E7
:204DC0002B4300F00C001201034302F03002134370BC4B70704700BF70B582B00D46044645
:204DE0006946FFF757FF04F110002946FFF7C2FF9DF80030012B04BFA37EAB709DF80130D7
:204E00000CBF03200220022B06D1A38B2B54A38B421C1B0AAB5402309DF8026056B1731E60
:204E2000234429181A7801F8012BA34203F1FF33F8D130449DF80330022B06D1E38B2B5412
:204E4000E38B421C1B0AAB5402309DF8046056B1F31D23442918073413F8012901F8012BE3
:204E6000A342F9D1304402B070BD00BF30B40278437802F00700C2F3C005C2F300140870A4
:204E8000C2F34010C2F380124D708C7003F00105C3F34004C8700A71C3F38100C3F3011267
:204EA0009B094D718C71C87130BC0A724B727047012943DD2DE9F04186B00F4603A914465C
:204EC0000546FFF7D3FF03AB03CB9DF811201B882383206161616AB3AE1C03A802AA01A909
:204EE000FFF76AFE9DF81380B8F1000F43D0029B002B31D1B8F1020FA38367D0B8F1030FC5
:204F00004DD09DF81580B8F1000F2CD0019BBBB9A38BE383B8F1020F4DD0B8F1030F31D05F
:204F2000701B3B1A8742C4E90E6300DA002006B0BDE8F081AB78A376EE1CCEE70020704712
:204F4000717816F8023B029A03EB01239BB2E383002ADFD1A383DDE7727816F8023B03EBD5
:204F600002239BB2C6E71E4904F1080000F034FAA4F81E80D4E71A49204600F02DFAA4F81F
:204F80001C80BEE706F10800034604F1080213F8011D02F8011BB342F9D10646C0E706F1A1
:204FA00008000346621E13F8011D02F8011FB342F9D10646A5E70A4904F1080000F00CFA00
:204FC0007378237216F8023B6372A9E70449204600F002FA7378237016F8023B637090E7EF
:204FE0000CC0000030B591B003F058FE044603F069FE6A4601462046FFF75AFF00283ED0F0
:20500000044603F02FFED0B39DF810100B2003F0FBFE9DF81310072003F0F6FE9DF8173035
:205020008BB1BDF81C50FFF7C1FD854205D0BDF81C204FF6FF739A4221D19DF817006946F2
:20504000FFF76CFEB0B102A90C2003F0E9FE9DF815303BB14FF6FF71062003F0D5FE204611
:2050600011B030BD9DF81A10062003F0CDFE204611B030BD69460D2003F0D2FEE3E74FF023
:20508000FF34ECE7F8B505460B2014460E46A84700232074A37496B3E37463750820A847ED
:2050A000002701232376A07567740620A847A076FFF77CFDE0830920A84701280CBF3B4692
:2050C00003236376FFF772FDA0830A20A84701281AD066B90323E375637E022B0CD0E37D36
:2050E000A3F10203B3FA83F35B092375F8BD0223E375637E022BF2D101232375F8BD07205D
:20510000A8476675E074C9E7E775E5E730B591B00546FFF74BFD4FF6FF74A0423AD04022E4
:205120000021684606F09CFC03F08AFE6A4601461A48FFF7A7FF03F083FE18B3ADF800407E
:205140000C2003F075FE014602A800F045F903F0A5FD0E9003F0B6FD034668460F93FFF736
:20516000EFFD044615B9204611B030BD03F04AFD80B103F0A3FD01466846FFF72DFE20469D
:2051800011B030BD0D2003F053FE0146684600F023F9D5E74FF0FF34E5E700BF158E000093
:2051A0000120FFF7B3BF00BF0020FFF7AFBF00BF0649074A074B9B1A03DD043BC858D0505E
:2051C000FBDC04F0FBFFFCF78FF800001CC5000008000020C8010020FEE7FEE7FEE7FEE70A
:2051E000FEE7FEE7FEE7FEE7FEE7FEE700F01F030121C0F34710994000F066B808B501F07E
:2052000059F800B108BDBDE8084001F009B800BF30B583B01446022301F01F0100228DF81A
:20522000063014F00C0341EA4015ADF8042006D0042B25D0082B27D00C2B02D103238DF803
:20524000043014F0030304D0022B15D0012B02D103238DF805300E4A01A9284601F034F8BE
:205260002306284603D401F02DF903B030BD012101F0BCF803B030BD01238DF80530EAE7F3
:2052800001238DF80430DCE702238DF80430D8E7ED51000001F01F0141EA40101F28CABF37
:2052A000054B4FF0A04300F01F00D3F8101521FA00F000F0010070470003005001460148E7
:2052C00000F098B86C04002070B50C4B1C689CB105460E4601E0246874B1237AAB42FAD12B
:2052E000E36816EA0301F6D063682846002BF2D098472468002CF0D170BD00BF6C0400209F
:20530000024B00221A60FFF779BF00BF6C040020EFF3108072B6704780F31088704700BF55
:2053200070B41A4A1A4D0023012440FA03F1C90712D59178B9B11178567801F01F0141EA4B
:2053400046111F29C6BF01F01F012E464FF0A04604FA01F1C6F808150133042B02F1030259
:20536000E3D170BC70471178567801F01F0141EA46111F29C6BF01F01F012E464FF0A04635
:2053800004FA01F1C6F80C15E6E700BFACBE0000000300500E4A30B40E4D02F10C04032038
:2053A0001378517803F01F0343EA41131F2BC6BF03F01F0329464FF0A04103F5E073033210
:2053C000944241F82300EBD130BC0F20FFF7A8BFACBE0000000300500B684A684260036080
:2053E000704700BF08B5082206F01EFBB0FA80F0400908BD0368DBB110B4002400E0134601
:2054000099420FD01A681C46002AF8D100230B600368CBB11A461B68002BFBD111605DF8E6
:20542000044B70470A686CB1226000221A60EDE700230B6003684BB11A461B68002BFBD116
:20544000116070470260F0E70160E8E70160704703689BB110B4002400E0134699421A686E
:2054600005D01C46002AF8D15DF8044B704734B1226000221A605DF8044B70477047026030
:20548000F7E700BF03682BB100201B680130002BFBD1704718467047F0B170B50024104E49
:2054A000054654B1E3070DD5295D304603F01CFD072C10D00134002CF4D12978304603F085
:2054C00013FDF7E72E2003F067FE295D304603F00BFD072CEED170BD024803F005BD00BF64
:2054E00024C0000014C0000008B503F0C9FE014B187008BDF3120020034B197806204A1C54
:205500001A7003F081BC00BFF3120020F8B5FEF707FE104E0746344600250C2003F088FC59
:205520002146FFF75FFF103420B90135102DF4D10020F8BD062006EB051503F06BFC2B7B55
:205540008342F5D1A868381AB0F5206F8CBF00200120F8BD70040020F8B5174E00243746A2
:2055600035460C2003F064FC2946FFF73BFF1035F8B90134102CF4D10F2407EB04142546BE
:2055800054F8100D6168A268E368A6420FC5F6D1062003F03FFC3873FEF7C2FD0346BB60EA
:2055A0000C2003F045FCBDE8F84001460248FFF713BF002CE1D1EBE77004002010B5044602
:2055C00042884068002106F04BFA23886288A06802FB03F2BDE81040002106F041BA00BFA8
:2055E00030B44588ADB14368002202E00132AA420CD0194601330C78002CF7D101230B7048
:205600000588806802FB050030BC7047002030BC70472846F8E700BF30B44488826854B102
:205620008A420CD00588002301E0914208D00133A3422A44F9D14FF0FF3030BC7047002301
:205640004268D15C0029F6D00020D05430BC704783688B4208D84288008800FB02308142C3
:205660002CBF00200120704700207047064B074A01211960D2F8503513F0FF03FAD1C2F85A
:20568000FC3F0120704700BF1010004000100040A1B1192810D8DFE800F00D770F0F6E65E1
:2056A000605B453F0F3A0F0F0F36322E2A0F26221E1A171300207047012070470220704734
:2056C0007D230B600020704700200860704710230B60002070470A230B6000207047202382
:2056E0000B600020704703230B600020704708230B6000207047D8230B60002070471A2319
:205700000B60002070470B230B6000207047244B1B780B6000207047224B93F900300B60FF
:2057200000207047204B214A012082B018601368002BFCD00020106012681D4B0192019ADF
:20574000D3F8483503F07F035B420B6002B07047184B5B790B6000207047164B5B780B6003
:2057600000207047134BDB7800200860002BA1D001230B6070470F4B1B7800200860002B97
:2057800098D004230B607047094B0B4AD3F80835A2FB03239B080A33DBB20B600020704735
:2057A000F4120020F5120020141000401C11004000100040D0000020CDCCCCCC0120704782
:2057C00070B582B0FFF7A4FDBFF35F8F1C4B1B78ABB11C4B1C4902224FF0FF34C1F808437F
:2057E000C3F88021C3F88020BFF34F8FBFF36F8FBFF35F8F02B0BDE87040FFF78DBD13496F
:2058000003F0FF020A600968114B019101991A601A680D490B4B00924FF0FF3502224FF41D
:205820004054009EC1F80853C3F88021C1F804431A60BFF35F8F02B0BDE87040FFF76CBD86
:20584000D000002000E100E0001000403011004034110040144BD3F8FC0F28B1D3F85035E3
:20586000DBB2032B01D000207047104B1B7803F0FF0073B10E4B1B78053B7A2BF3D80D4BCD
:205880001B68002BEFD10C4B1868B0FA80F040097047074A1378053B7A2BE5D892F8800021
:2058A00080F00100704700BF00100040D00000207005002030110040341100400D2801D020
:2058C00001207047042A05D121B1034B1B680B600020704702207047F405002070B51B4C89
:2058E000D4F85055EDB2032D82B028D0184B1948194AC4F804051949C3F8102501264FF09A
:205900000062C3F81415C3F80465C3F80425FFF757FFD4F8003243F01003C4F80032D4F8EF
:205920000032022D43F40023C4F8003209D00C4B0C4A002119601B680193019B166002B0C3
:2059400070BD094B1E6002B070BD00BF0010004000F0014070050020381100404C800040FF
:2059600058110040041000400810004070B5304D304C314A00232B6084B02D680095009D90
:20598000236024680194019C1360146802942B4D029C42F8043C2C7852F8043C0393631F6B
:2059A0007A2B039A02D8023CA1420ADA81220021224806F055F8FFF791FF0024204604B091
:2059C00070BD2246691C06F03DF82B191C4E5B781C4A3F2B9ABF9B00DBB2FF233370D2F821
:2059E0004835194A03F07F035B425BB299B20420137003F009FA3178032003F005FA134BA4
:205A00002A7813491A74D1F84C055860D1F8481599605200DA605D68084881220021023D65
:205A20001D6006F01DF8FFF759FF204604B070BD381100400C110040341100407005002049
:205A4000F412002000100040F5120020F40500200080004010B5038804461BB340F2D33231
:205A6000934224D1822901D0012010BD124A1378053B7A2B16D8114B1B6813B992F8803053
:205A800083B104F009FF03F051F903F007F98021FFF76CFF002805DD80B203F0F9F8084B31
:205AA000DB68984740F2D3332380012010BD00230380032010BD00BF700500203011004090
:205AC000C8BF00007D2910B50C4609D801460A48A31C00F8013B224605F0B4FF002010BD18
:205AE000064A0749074803F0FFF921467D22064803F0FAF9012010BD080600202CC000008A
:205B00003CC00000ECBE000040C0000070B4164B1649174C0F22C3F810258A780A3A02EB44
:205B20008202C3F808250879CD798A794979120642EA0522024342EA0142C3F86C2640F2CF
:205B4000022600250B48C3F834657F2140F20122C3F83845C3F83C55C3F81405C3F818151C
:205B6000C3F8502670BC704700100040D0000020211001000800000608B5084BD3F8FC2F8B
:205B80001AB1FFF7ABFE012008BD0122C3F8FC2FFFF7BCFFFFF7A2FE012008BD001000402F
:205BA00030B585B0FFF7E8FF104A11491148124C0023136015680395039D0B600D680295C1
:205BC000029D03600368019301230198236001E00B6813B91368002BFAD0044A044B1068DF
:205BE0001B68B0FA80F0400905B030BD48110040441100404C1100402C10004010B50728E2
:205C000067D8DFE800F01A2A666648525A04364A3648C9B25171D0F8FC3F5BB11179D47965
:205C2000937952791B0643EA04230B4343EA0243C0F86C360024204610BD01294FD0002935
:205C40004AD12B4A294B01211160D3F8504514F0FF04FAD1C3F8FC4FEDE7A1F10B030F2BC7
:205C60003AD8214A214BC8B29070D3F8FC2F002AE0D01F4A01201060D3F8504514F0FF0490
:205C8000FAD10A3901EB8101C3F8FC4FC3F80815FFF772FFCFE731F007041DD1124BC1F362
:205CA00080011970FFF78CFDC5E731F0010413D10D4BC9B2D970204610BD0B4A0B4BC9B230
:205CC0005170D3F8FC2F002AB4D0C3F80C150024B1E70124204610BD0224204610BDFFF720
:205CE0004BFF0024A7E700BFD0000020001000401010004010B57D2884B04BD82C4CFFF71A
:205D00003BFFE378002B3FD163782A4A2A49DBB20120C2F80C350860D2F85035DBB2022BD7
:205D2000FAD12649264BC2F8043500230B600868019001980B66086E029002988B648B6CA4
:205D40000393039BD2F8003223F01003C2F80032D2F80032012143F48023C2F800321160AC
:205D600003F0FEFA6FF002031C1A03F0F9FAE042FBD4104AD2F85035DBB20B2BFAD0FFF79B
:205D8000ADFD002004B010BDFFF70AFF0028BBD10220F7E70B4A0C4904460C4803F0A4F82E
:205DA00021460B4803F0A0F8012004B010BD00BFD0000020001000400C1000400C11004044
:205DC000080600202CC000003CC00000ECBE00005CC0000010B50C46FFF774FE2046BDE85D
:205DE0001040FFF787BF00BF10B51A491A481B4A1B4C00230B6003704B6023708B6082B0A6
:205E0000CB600B741360136800934FF080430121009819601368002BFCD00024146013689D
:205E2000019321460F48019B03F002F9214681220D4805F015FE0D4B0122C3F8FC2FFFF7C8
:205E400065FE0B4A1378DBB21370FFF7B9FC204602B010BDF4050020F412002000010040DF
:205E6000F5120020C00000207005002000100040D0000020074A1378053B7A2B07D8064B55
:205E80001B6813B992F880007047012070470020704700BF7005002030110040154B1B787B
:205EA00003B1704700B503F0FF02134B196883B029B9124B1A6882B903B05DF804FB1A603F
:205EC0001B6800930E480F4B009A012283F8802003B05DF804EB03F051B919601B680193A0
:205EE00081220848019B05F0BBFD03B05DF804EBFFF7F4BCD00000203011004034110040D3
:205F0000C00000207005002010B40346002253E8000F00EA020143E8001494F0000FF6D10D
:205F20005DF8044B704700BF10B568B90E4CA368012262703BB1D3E900230020A26098473B
:205F4000A368002BF7D110BD0128FCD1064C2369A070002BF7D0D3E900230120226198473E
:205F60002369002BF7D110BD8806002010B50B4C237882B013B1852002B010BD0848636043
:205F8000A3602361E36000F0B5F8019000F0BEF801980123237002B010BD00BF8806002027
:205FA000295F000038B5154DAB78044673B110B14368012098470020FDF7FEFEEB68013376
:205FC000EB600020BDE83840FDF7FEBE03F0FF00FDF7F2FE64B12A6942B1944208D0134611
:205FE00001E09C4204D01B68002BFAD122602C61EB68002BE2D100F09FF8DFE7880600205A
:2060000038B5154D6B78044673B110B14368002098470020FDF7D0FE6B6801336B600020A1
:20602000BDE83840FDF7D0BE03F0FF00FDF7C4FE64B1AA6842B1944208D0134601E09C4239
:2060400004D01B68002BFAD12260AC606B68002BE2D100F089F8DFE78806002038B50B4C8B
:206060000020FDF7A9FE6368013B6360656825B1BDE838400020FDF7A7BE00F087F865701E
:206080000020BDE83840FDF79FBE00BF8806002010B5074C23784BB9064B002808BF1846B0
:2060A00000F044FB08B90123237010BD852010BDF6120020C8C0000000B583B0019000F0E1
:2060C00069FB00F06FFB019800F056FB00F05AFB002003B05DF804FB10B4034653E8000F65
:2060E00000EA010243E8002494F0000FF6D15DF8044B7047044A137923B901211060918056
:2061000018467047852070479C060020084B1A68D20704D4C02283F8002301221A60054A5A
:206120004FF080410123C1F818351370704700BF00E100E03B14002010B4094B094A002180
:20614000196083B01B680193019C4FF0804102200123C1F80403136003B05DF8044B704758
:206160000401004008000040074B00221A6082B01B68019301994FF080430122C3F80423BA
:206180001A6002B0704700BF00010040074B01221A604FF08042D2F80C3403F00113B3F177
:2061A000011FF8D0024B00225A717047040000409C06002010B5174B1A6882B062B10021F1
:2061C000154A19601B68507900934FF080410123009CC1F8083398B1104B1A68BAB10022A1
:2061E0001A601B6801934FF0804202210A4B0198C2F808131B68012002B0BDE8104018477D
:20620000116853718847054B1A68002AE7D102B010BD00BF000100409C0600200401004038
:2062200030B41F4C94F86A3082B0002B33D104F12F03204604F15F01FF2203F8012F8B428D
:20624000FBD14FF0FF3222600123072B88BFE11803F1010340F8042F88BF81F858200C2B18
:20626000F3D11049104B0020C0228880606683F8062340221A600D4B0D4A18601B68019318
:20628000019D01214FF0004384F86A10C2F8043302B030BC7047082002B030BC704700BF44
:2062A000A40600200807002000E100E07C61004000600040034B93F86A00003818BF0120F4
:2062C000704700BFA4060020F0B4454F3B1893F93030002B5DDA91F802C0CCF3400CBCF1A2
:2062E000000F0CBF0823002307EB8304A4F104040CBF0C26082602E001339E424CD954F8CE
:20630000045F0135F8D13C1847F8232084F83030BCF1000F4FD08A7854071AD4D5074ED445
:206320001F284C7887BF2F4D00F01F0202464FF0A04502F5E072A40045F822402A4DC40844
:2063400000F0070C2E5D012202FA0CF232432A558A7812F0020222D09B0003F1804303F55A
:20636000C0430978D3F8104524F44F3424F44074C3F8104502020904D3F8100501F44031AB
:2063800002F47C520A430243C3F810250020F0BC70470820F0BC70470420F0BC7047083BDF
:2063A0001F44097897F8603043EA811387F860301046F0BC7047FA1882F85800ABE71F2894
:2063C00087BF084A00F01F0404464FF0A04202EB8402D2F8004724F00204C2F80047ADE774
:2063E000A4060020000300500807002070B4324C251883B095F93030072B22DD234493F82E
:2064000058309B09032B46D0012B0CBF4FF400324FF440321F288ABF284B4FF0A04300F0D6
:206420001F0003EB8000D0F8003723F44033C0F80037D0F800371A43C0F8002703B070BC3D
:206440007047DAB2072AF9D8980000F1804000F5C04003F140029200D0F8106592B202F17D
:20646000804202F5C04246F00106C0F810650020106012680192019A0029DFD095F9302009
:2064800054F82220002AD9D00D49012202FA03F3C1F80433D2E71F288ABF084A4FF0A04284
:2064A00000F01F03D2F8102598BF0346DA4002F0010202321204ADE7A40600200003005021
:2064C00000600040194B034493F93030072B13DD1F288ABF164B4FF0A04300F01F0003EB53
:2064E0008000D0F8003723F44033C0F80037D0F80037C0F800377047DAB2072A14D810B492
:206500009A0002F1804202F5C0420A4CD2F81005012120F0010001FA03F3C2F81005C4F84F
:2065200008335DF8044B7047704700BFA406002000030050006000402DE9F04F002289B0E2
:20654000CDE9022216461546704B714C7148012204E0043383424FEA420211D0196801296D
:20656000F7D1D4F804131142F3D01D60196800910433834246EA020600994FEA4202EDD1C3
:20658000654B1A68012A07D016F0FF0F17D1002E32DB09B0BDE8F08F00221A601B68019300
:2065A0004FF0A042019BD2F810255C4B0292D3F81035039316F0FF0F1ED046F00046584F19
:2065C00001250024A30003F180432E4203F5C0434FEA45050BD0D3F8100557F82420D3F810
:2065E0001015C0F30520C1F3014102B190470134082CE7D1002ECCDA4FF0FF33494D0DF124
:20660000100ACDE906330022CAF804200492A5F16408454C0027012614F9010B431C32D078
:20662000C0F3C20E08AB03EB0E0C00F007031CF8081C06FA03F31942C2B200F03F0022D004
:2066400008EB0009910999F9309058F82990B9F1000F4CD003294CD01F288BBFDFF8BCE028
:206660004FF0A04E02F01F0202460EEB82021CF818ECD2F800C71EEA030FCCF3014C1BD15A
:20668000BCF1030F3CD0A542C6D1002F81D04FF0A0430299D3F81035204A9942D2F8102520
:2066A00003D1039991423FF474AFDDE90401CDE90232CDE90601ACE7BCF1020FE3D103299E
:2066C00004D0B9F1000FDED0C847DCE74FF4403CD2F8003723F44033C2F80037D2F8003771
:2066E00001374CEA0303FFB2C2F80037E9E70329C9D11AF80EB04BEA030B0AF80EB0ABE789
:206700000329DED14FF4003CE2E700BF0061004000600040206100407C6100400003005025
:20672000A40600200807002004070020104A1378DBB910B403780F494FF08044C3F3400329
:20674000C4F88035037803F00103C4F878350B68DB0704D4C02381F8003301230B6001237E
:20676000137000205DF8044B70478520704700BF3C14002000E100E0014B02681A607047E8
:20678000180700204FF080434FF46072C3F80423704700BF4FF080434FF46072C3F808234E
:2067A000704700BF014B00221A6070471807002010B54FF0804386B0D3F80443620705D533
:2067C000D3F8082103F58473002A4ED1A30603D52A4B1A68002A3FD1600603D5284B1A68A8
:2067E000002A2FD1210602D5264B1A680ABBE20502D5254B1A6892B9A3050ED5234B1A6843
:206800005AB100221A601A68214B0592059A1B68022006B0BDE81040184706B010BD002259
:206820001A601B4A1B68049301201368049A9847E2E700201860164A1B6803931368039A54
:206840009847D4E700221A60124A1B68029301201368029A9847C5E7002018600D4A1B6859
:2068600001931368019A9847B6E700221A600A4A1B6800931368009A9847A7E71401004015
:20688000180100401C010040200100402401004018070020140700201007002008B5FFF718
:2068A00087FFBDE80840FFF785BC00BF074B0849084A0020186082B01B680193019BD1F834
:2068C00008051368C0B202B0184700BF00D1004000D000401C07002070B443791E4C1F4ED3
:2068E00003EB430546F82320655D8DBB90F904308A78002B24DB03F1604303F56143520168
:20690000D2B283F8002390F90430002B07DB144D03F01F0601225B09B24045F823200368AE
:206920000A88C3F8082543790879C97803EB4303E218012550709170E554002070BC70470E
:20694000084D03F00F0352011D44D2B22A76DAE7082070BC704700BF2007002024070020E8
:2069600000E100E0FCEC00E00368044A01211960437903EB43030221D15470472007002004
:2069800010B403680022C3F8002183B0D3F80031026801930123019CC2F8443311B102687F
:2069A000C2F8043303B05DF8044B70472DE9F041274F284EDFF8A08084B000244FF480355E
:2069C000D7F804332B4211D056F824200023E0B262B1C7F84853C7F8085346F8243056F8B5
:2069E00024300393D8F80030039A98470134032C4FEA4505E4D1164BD3F80423D10702D593
:206A0000D3F80021C2B9124BD3F80423920710D5D3F804216AB10022C3F80421D3F8042145
:206A20000D4B0192019A1B68052004B0BDE8F041184704B0BDE8F0810022C3F80021064A27
:206A4000D3F80031029304201368029A9847DAE700B0004040B1004024070020084B0949B9
:206A60001B68094AA1FB03139B0C916800FB03F09368CB1A23F07F438342F9D3704700BF44
:206A80003401002083DE1B4310E000E030B44C689C4208D2002545600968016093420CD075
:206AA000002030BC704743600D6805600868E41A18449342C1E90004F2D1201E18BF012050
:206AC00030BC704710B4D1E900439A4228BF1A46C0E90042D1E90030801A1344C1E900308F
:206AE000003818BF01205DF8044B70474B689A4228BF1A4662B10B68C0E90032D1E90030EA
:206B0000801A1344C1E90030101E18BF012070471346F1E710B5094B09491A68094C82B028
:206B2000002301208DF804008DF80730ADF8053001A823700B70904702B010BD500800206D
:206B4000FA120020F7120020704700BF00B583B00D4B0E4900228DF80420D3F82025ADF853
:206B60000620D3F8C0040A4A0968136800280CBF4FF480704FF00120034301A81360884769
:206B800003B05DF804FB00BF00700240500800202C070020F8B54B680B4F934228BF1346E3
:206BA0001D460C4606461A460968384604F04AFFC6E90075D4E90030401B2B44C4E9003090
:206BC000003818BF0120F8BD5808002070B54B68934228BF13460D461C4606465BB93360BB
:206BE0007460D5E90032121B2344C5E90032201E18BF012070BD044B09681846224604F080
:206C000021FF3060ECE700BF5808002010B5274BD3F80044C3F8004482B0BFF36F8FBFF3D9
:206C20004F8FBFF36F8FBFF34F8FE1050ED5204B20491A68022000238DF80730ADF805303C
:206C40008DF80400012301A80B709047A2050DD5174B18491A68032000238DF804008DF86A
:206C60000730ADF8053001A80B70904763051AD5104B1A78BAB10D4C0F48012100221A70DB
:206C8000C4F808150160BFF36F8FBFF34F8F084BADF8052004211B688DF807208DF8041070
:206CA0000DEB0100984702B010BD00BF0070024050080020F71200205870024070B5394AB9
:206CC0000126136806FA01F423431360030682B0054610D4344B1B681C420AD1334B8DF89C
:206CE000060006221B688DF807608DF8042001A8984702B070BD2E4B00F00F0133F8113002
:206D000003F1804303F51C331A68DAB100221A60BFF36F8FBFF34F8F264B80281B6822D0FE
:206D2000082B08BF244B254808BF1A60244B03EB01120026927B0670032A4FEA011029D0B3
:206D40001B583BB3184B19682140D2D1174B8DF8065006221B688DF807108DF8042001A814
:206D6000984702B070BD082B08BF134B134908BF1A60144B93F89E200020032A087003D020
:206D8000D3F89030002BDDD16FF001010648FFF7A3F9D7E7012303FA01F1C9430248FFF731
:206DA0009BF9CFE72C0700202807002050080020D8C00000300100101C7C0240F812002092
:206DC000C007002030070020064B93F900201878002AB4BF0021102100F00F031944FFF7A4
:206DE0006DBF00BFFA1200202DE9F04FDFF8F4A2DFF8F882DAF80040D8F80030234089B0BB
:206E000000F0C68013F0012400F0C58094FAA4F4002C00F0C580B4FA84F70F2F3D461BD87B
:206E2000DFF8CCA24FEA071B0AEB07165AF80B30B289716806A8984767F07F0901230297D6
:206E40004FFA89F903FA07F708B94AF80B006FEA070B05F008072CE0A7F11003974A4FF018
:206E6000010BDDB20BFA07FB4FFA83F913F008032C4602EB05166FEA0B0B019340F09880D8
:206E800003950022019205F594738D4A52F82330B28971683768029306A8B847069A22B1C8
:206EA000079A029B934200F2DB80019F029400B93060844B1B68082B02D1834B82221A60AF
:206EC000D8F80020B368079902EA0B020B44C8F800207E4AB360B9F1000F4FF00103137085
:206EE000069A73DB002F00F08580754BC3F8A027C3F8A417734B1B68082B4FEA850540F061
:206F00008A80734B1B68002B40F08580B9F1000FB4BF042328231D446E4A6F49029B6F4EFD
:206F2000DFF8D081EDB2B4BF9146894605F1804509EB430905F51C35002701243760BFF396
:206F40006F8FBFF34F8F2C60BFF36F8FBFF34F8F0220FFF783FD3368002BEFD01E20FFF786
:206F60007DFDD8F800309A0606D40220FFF776FDD8F800309B06F8D50120FFF76FFDB9F8F0
:206F8000003003F1804303F51C331B68002BD4D009B0BDE8F08F93FAA3F4002C7FF43BAFE7
:206FA0001023464E039399464FF0FF3B254668E7434BD3F8C034D9037DD5B2897168346837
:206FC000019F029506A80023A04770E7002F61D105EB85039B0003F1804303F51C33AD004C
:206FE000C3F80026C3F80416364B1B68082B5CD0042311E005EB85039B0003F1804303F59E
:207000001C33AD00C3F80027C3F804172D4B1B68082B3FF476AF28232B44DBB203F1804338
:2070200003F51C3301221A60BFF36F8FBFF34F8F284B294A2A4913EA290938BF9146029B39
:2070400039F8132002F1804202F51C3202E00B68002B9DD11368002BF9D009B0BDE8F08F98
:2070600002245946B4731F48FFF736F81E4B03991B688DF8174006228DF816108DF81420A9
:2070800005A89847DAF80030D8F8004023407FF4B9AE7DE70A4BC3F8A026C3F8A416094B12
:2070A0001B68082B4FEA8505A2D1094B1B68002B3FF42CAF9CE70395EAE600BF30070020D3
:2070C00000700240300100101C7C0240F812002034010010D8C00000F8C00000047102406D
:2070E0000071024028070020500800202C070020C00700207474024038B5214BD3F86C44DE
:20710000C3F86C44BFF36F8FBFF34F8F1D4B1B68082B28D09CB1012594FAA4F3B3FA83F2F4
:207120001146D3B10F2AA2F1100005FA02F30DDDC0B224EA0304FFF7C1FD002CECD1124B39
:207140001B787BB9BDE83840FFF74EBE05FA02F224EA020441F08000EDE720211020FFF756
:20716000ADFDD9E738BD094B1B68002BD2D1084A136803F0011123F0011311601C43C9E792
:207180000070024030010010F8120020340100105408002010B5184B1B68082B82B002D12E
:2071A000164B00221A60164B164C93F87E200021032A217005D01B6F6BB1FFF715FE02B0D1
:2071C00010BD11486FF40001FEF786FF2378002BF3D002B010BD6FF400010B48FEF77CFF7C
:2071E0000A4B062107221B688DF80410ADF8062001A89847EAE700BF300100101C7C0240D0
:2072000030070020F81200202807002050080020134B1B68082B02D1124B00221A60124BE9
:20722000124993F88E200020032A087002D0D3F8803003B1704700B56FF0807183B00C48B1
:20724000FEF74AFF0B4B062108221B688DF80410ADF8062001A8984703B05DF804FB00BF14
:20726000300100101C7C024030070020F8120020280700205008002000B5184B1B68082BDD
:2072800083B002D1164B00221A60164B164993F81E210020032A087005D0D3F8103153B1B7
:2072A00003B05DF804FB6FF480711048FEF714FF03B05DF804FB6FF480710C48FEF70CFF64
:2072C0000B4B062188221B688DF80410ADF8062001A8984703B05DF804FB00BF3001001011
:2072E0001C7C024030070020F812002028070020500800200B4B1B68082B02D10A4B002216
:207300001A600A4B0A4993F89E200020032A087003D0D3F8903003B1704706486FF00101C5
:20732000FEF7DABE300100101C7C024030070020F8120020280700200B4B1B68082B02D1F6
:207340000A4B00221A600A4B0A4993F80E210020032A087003D0D3F8003103B1704706488D
:207360006FF08001FEF7B8BE300100101C7C024030070020F8120020280700200B4B1B68FE
:20738000082B02D10A4B00221A600A4B0A4993F8EE200020032A087003D0D3F8E03003B18E
:2073A000704706486FF02001FEF796BE300100101C7C024030070020F81200202807002014
:2073C0000B4B1B68082B02D10A4B00221A600A4B0A4993F8FE200020032A087003D0D3F829
:2073E000F03003B1704706486FF04001FEF774BE300100101C7C024030070020F812002051
:20740000280700200B4B1B68082B02D10A4B00221A600A4B0A4993F8AE200020032A087087
:2074200003D0D3F8A03003B1704706486FF00201FEF752BE300100101C7C0240300700204C
:20744000F8120020280700200B4B1B68082B02D10A4B00221A600A4B0A4993F8BE200020B2
:20746000032A087003D0D3F8B03003B1704706486FF00401FEF730BE300100101C7C0240CE
:2074800030070020F8120020280700200B4B1B68082B02D10A4B00221A600A4B0A4993F819
:2074A000CE200020032A087003D0D3F8C03003B1704706486FF00801FEF70EBE3001001068
:2074C0001C7C024030070020F8120020280700200B4B1B68082B02D10A4B00221A600A4BDD
:2074E0000A4993F8DE200020032A087003D0D3F8D03003B1704706486FF01001FEF7ECBD86
:20750000300100101C7C024030070020F81200202807002010B5184B1B68082B82B002D19D
:20752000164B00221A60164B164C93F82E200021032A217005D01B6A6BB1FFF755FC02B064
:2075400010BD11486FF48021FEF7C6FD2378002BF3D002B010BD6FF480210B48FEF7BCFD3C
:207560000A4B062102221B688DF80410ADF8062001A89847EAE700BF300100101C7C024051
:2075800030070020F8120020280700205008002010B5184B1B68082B82B002D1164B00223D
:2075A0001A60164B164C93F83E200021032A217005D01B6B6BB1FFF717FC02B010BD11486E
:2075C0006FF40021FEF788FD2378002BF3D002B010BD6FF400210B48FEF77EFD0A4B0621E2
:2075E00003221B688DF80410ADF8062001A89847EAE700BF300100101C7C024030070020F5
:20760000F8120020280700205008002010B5174B1B68082B82B002D1154B00221A60154B3B
:20762000154C9A7F0021032A217005D01B696BB1FFF7DAFB02B010BD10486FF40031FEF751
:207640004BFD2378002BF3D002B010BD6FF400310A48FEF741FD0A4B062101221B688DF81A
:207660000410ADF8062001A89847EAE7300100101C7C024030070020F812002028070020E7
:207680005008002010B5184B1B68082B82B002D1164B00221A60164B164C93F84E200021B5
:2076A000032A217005D01B6C6BB1FFF79DFB02B010BD11486FF48011FEF70EFD2378002B74
:2076C000F3D002B010BD6FF480110B48FEF704FD0A4B042206211B688DF80410ADF80620A2
:2076E0000DEB02009847E9E7300100101C7C024030070020F812002028070020500800207E
:2077000010B5184B1B68082B82B002D1164B00221A60164B164C93F85E200021032A2170DE
:2077200005D01B6D6BB1FFF75FFB02B010BD11486FF40011FEF7D0FC2378002BF3D002B038
:2077400010BD6FF400110B48FEF7C6FC0A4B062105221B688DF80410ADF8062001A89847CC
:20776000EAE700BF300100101C7C024030070020F8120020280700205008002010B5174BEF
:207780001B68082B82B002D1154B00221A60154B154C93F86E200021032A217005D01B6E1B
:2077A0006BB1FFF721FB02B010BD10486FF48001FEF792FC2378002BF3D002B010BD6FF4F2
:2077C00080010A48FEF788FC094A062312688DF80430ADF8063001A89047EBE73001001040
:2077E0001C7C024030070020F812002028070020500800201D490B78002B34D130B41C4C02
:207800001C4A206001240C701046194640251C4607E011F0080F00F1100014BF4FF40075DA
:2078200040250131C9B20929A0F89C5080F89E40C0F89040C0F89840EBD14020002107E0EE
:2078400013F0080F02F1100214BF4FF4007040200133DBB2092B9081917311609160EFD1F7
:20786000002030BC70470820704700BFF912002050080020300700200249034A00230B6087
:207880001370704750080020F912002038B5604B4FF40062C3F80024BFF36F8FBFF34F8FAF
:2078A0005C4B1B68082B62D00D2B11D10020FCF783FA594B1A68002A00F08780574B032281
:2078C0001A600020FCF780FA524B1B68082B52D04F4A0123C2F80035BFF36F8FBFF34F8F40
:2078E000D2F800341B05FBD54FF40063C2F80034BFF36F8FBFF34F8F464B1B68082B48D067
:20790000434A474D474843498024C2F81C45002340F2FF14C2F830352B6004600A68424DF5
